:020000041000EA
:1000000000B5324B212058609868022188439860DF
:10001000D860186158612E4B002199600221596106
:100020000121F02299502B49196001219960352056
:1000300000F044F80222904214D00621196600F024
:1000400034F8196E01211966002018661A6600F04E
:100050002CF8196E196E196E052000F02FF8012189
:100060000842F9D1002199601B49196000215960AB
:100070001A491B48016001219960EB211966A021F2
:10008000196600F012F800219960164914480160C1
:100090000121996001BC002800D000471248134993
:1000A000086003C880F30888084703B5996A0420EC
:1000B0000142FBD001200142F8D103BD02B5186610
:1000C0001866FFF7F2FF186E186E02BD00000240BE
:1000D000000000180000070000035F00212200005C
:1000E000F4000018222000A00001001008ED00E03C
:1000F00000000000000000000000000074B24E7A12
:1001000000200420F7010010C3010010C5010010F9
:10011000C1010010C1010010C1010010C101001097
:10012000C1010010C1010010C1010010C701001081
:10013000C1010010C1010010C9010010CB01001065
:10014000CD010010CD010010CD010010CD01001037
:10015000CD010010CD010010CD010010CD01001027
:10016000CD010010CD010010CD010010CD01001017
:10017000CD010010CD010010CD010010CD01001007
:10018000CD010010CD010010CD010010CD010010F7
:10019000CD010010CD010010CD010010CD010010E7
:1001A000CD010010CD010010CD010010CD010010D7
:1001B000CD010010CD010010CD010010CD010010C7
:1001C00000BE00BE00BE00BE00BE00BEEFF3058054
:1001D000103800BEF2EB8871EC3B00100C3C0010B4
:1001E0003802001090A31AE71E481F49086006C88D
:1001F00081F3088810471D480068002801D019487D
:10020000F3E70DA40ECC002902D000F012F8F9E7B4
:100210001749184A002000E001C19142FCD116495B
:100220008847164988471649884700BEFDE701C937
:1002300001C29A42FBD370470C3C0010C000002062
:10024000E8010020343D00100000042000000420DC
:10025000343D0010001004200010042000000000B5
:10026000704700000000000008ED00E0000000D032
:10027000E8010020D0050020D93300106D030010E4
:10028000D1330010F8B5C04606480749091A8B104B
:10029000C90FC91810B5491003D0044B002B00D06A
:1002A000984710BDE8010020E80100200000000090
:1002B000054B10B5002B03D00449054800E000BFF2
:1002C000FFF7E2FF10BDC04600000000A0040020C0
:1002D000B03800101023F0B5C646D0269846012746
:1002E00000B5204C3606A04420CC280000F0AAF926
:1002F0003B00AB40736273614445F5D11023D026B7
:1003000098460127184D3606A84410CD200000F06D
:1003100099F93B00A340002201212000B36200F0C4
:100320007DF94545F1D1132000F08CF980231B03A2
:1003300073620B20B36100F085F980231B017362A7
:100340000C20B36100F07EF980235B0173620D2005
:10035000B36100F077F980239B017362B36180BCC5
:10036000B846F0BD8C3900107C390010F8B5CE4687
:100370004746D02480B503F049F9FFF7ABFFA64B01
:1003800004269846042724066FE0802563681D42F2
:100390007CD0802563686D002B4200D180E08025F1
:1003A0006368AD002B4200D18FE0082340256661D1
:1003B000A361994663681D427CD0802563681D4215
:1003C00000D192E0802563686D002B4200D197E058
:1003D00080256368AD002B4200D1A7E008234025AB
:1003E00063610833A361994663681D4200D192E0BE
:1003F000802563681D4200D1A9E0802563686D00F7
:100400002B4200D1AEE080256368AD002B4200D1C5
:10041000BEE01023402563611033A36199466368F1
:100420001D4200D1A9E0802563681D4200D1C0E0D3
:10043000802563686D002B4200D1C5E0802563688C
:10044000AD002B4200D1D0E02023636180231B014B
:10045000A36180235B01A36180239B01A3618023AF
:100460001B03A361642000F0E1FC4025A7616368E1
:100470001D428AD1142000F0D9FC63681D4284D14A
:1004800031216661404603F097F9EBE7142000F054
:10049000CDFC63681D4200D07BE732216661F1E745
:1004A000142000F0C3FC63682B4200D077E73321AF
:1004B0006661E7E7142000F0B9FC63681D4200D0D4
:1004C0007BE74B4634216361DCE7142000F0AEFC8F
:1004D00063682B4200D068E741214046666103F023
:1004E0006BF980231B016361BCE7142000F09EFCC4
:1004F00063681D4200D065E7082335216361C1E7C9
:10050000142000F093FC63682B4200D060E70823BE
:1005100036216361B6E7142000F088FC63681D4251
:1005200000D065E74B4637216361ABE7142000F04C
:100530007DFC63682B4200D050E7082342216361B1
:10054000404603F039F980235B0163618AE7142098
:1005500000F06CFC63681D4200D04EE71023382188
:1005600063618FE7142000F061FC63682B4200D0C8
:1005700049E710233921636184E7142000F056FC19
:1005800063681D4200D04EE74B462A21636179E73C
:10059000142000F04BFC63682B4200D039E7102395
:1005A00043216361404603F007F980239B016361A7
:1005B00058E7142000F03AFC63681D4200D037E78A
:1005C0002023302163615DE7142000F02FFC636875
:1005D0002B4200D032E7202323216361404603F001
:1005E000EBF880231B0363613CE7142000F01EFC42
:1005F00063682B4200D027E72023442163614046F3
:1006000003F0DAF880231B01636180235B016361DF
:1006100080239B01636125E7B0380010074B800001
:10062000C3181B68C90092000A435A400C231340A8
:10063000034A9446604403607047C04604C00140CA
:1006400004D001400123D0228340120693629361BB
:10065000094A83009A1811684022514080320A40AA
:100660000649C0008C4663441A60054B9C4605232E
:10067000604443607047C04604C0014004D001405C
:10068000004001400FB400B5084883B003F00CF8F7
:10069000049B002B07D005A91800019102F07EFEF3
:1006A000034803F001F8012002F090FEC838001062
:1006B000D838001070B5EFF3108C72B60D4D2B6862
:1006C000002BFCD0BFF35F8F0724CB08C618C05C9B
:1006D00001230C40A3401C000440034207D11843EF
:1006E0003070BFF35F8F2C608CF3108870BD1000EA
:1006F000FFF7C8FF2C0100D0044A1078431CDBB27E
:10070000172B00D9102313707047C04698010020A2
:100710000021044B044ABFF35F8F02C39342FAD116
:100720007047C046000100D0800100D0054B064A4A
:100730001360064A136053609360D3601361536182
:10074000936170478080808000E400E004E400E072
:100750001F2318401E3B8340002905D0C021044AB6
:100760004900535013607047802201498B50FAE7CB
:1007700000E100E070B50D00EFF3108672B60F4A8D
:100780001368002BFCD0BFF35F8F0D4B10309B68BC
:1007900084001B590B4A934203D09D4201D000F0C4
:1007A00093FD074B9B681D51BFF35F8FBFF35F8FB6
:1007B0000022024B1A6086F3108870BD240100D01D
:1007C00000ED00E0CD010010024B9C466144890021
:1007D000016070474000003470B5114C114DAC42BF
:1007E0000FD2FF262368002B0CD0FFF785FF0100F6
:1007F0002000FFF7E9FFA680BFF35F8F0834AC420B
:10080000F0D370BDFFF778FF01002000FFF7DCFF99
:100810002671BFF35F8F0834AC42E3D3F1E7C046E3
:10082000E0010020E80100200A4B1968EFF3108076
:1008300072B60A68002AFCD0BFF35F8F1B68BFF353
:100840005F8F00221A6080F3108840BF00200021D3
:100850007047C046CC050020F0B5DE4657464E46F0
:100860004546E0B583B0EFF3058203231340B54A54
:10087000990052580091904601229A40B24B9346FB
:100880001A60B24B01932EE043469B881BB2002BAB
:1008900000DB99E043469B79002B00D0DDE0434626
:1008A00008241C5F002C00DA06E143465A69630005
:1008B0001B19DB00D3189D68DC686B1C00D107E1B5
:1008C000A34B00999C4661449A6A0B69A81A9B1A2B
:1008D000984200D20D619E4800F03EFB8C4200DD44
:1008E000EAE000D126E15B4699484363434608228B
:1008F0009B5E9946002BC7DB424652695B009246DD
:100900004B44DB009A4453469E68DF6800F024FBAA
:100910008F42B9DC00D100E1002F00DAE1E052465D
:10092000534654691B69019A934200D1D4E0414671
:1009300052460820085E5288000421001043984760
:1009400004000D0023002B4300D1CAE0002D00DB82
:10095000E7E030003900001BA94153469860D96098
:1009600000229A5E002A8FDB43465D6953009C1883
:10097000E4002C19A768E4688C4200DD84E702D10A
:10098000874200D980E74646328108360DE08C4226
:1009900000D1D3E01E000023F25E002A0ADB5300E0
:1009A0009C18E4002C19A768E4689B18DB00EB187E
:1009B0008C42ECDD53461A804B46338043469B887D
:1009C0001BB2002B00DA65E743461A69EFF310818A
:1009D00072B61368002BFCD0BFF35F8F43469E882E
:1009E000012342465B42938036B21369BFF35F8FA7
:1009F00000221A6081F31088002E00DA4AE743468D
:100A00005D69083342469C467700BF19FF00EF1925
:100A1000BB68604698460823D15E9246FC68002970
:100A200007DA0EE0A2424FD018000023C15E002971
:100A300006DB4B005B18DB00EB18DA68A242F1DD45
:100A4000524606800023FE5E3980002EDCDA904696
:100A500043469B79002B00D121E700234246937146
:100A6000434646460821595E08364B1C24D047466B
:100A70008946556902E006004B1C18D04B005B18F4
:100A8000DB00E8180A008C46E95E43881BB2002BA5
:100A9000F1DA01235B42DC178360C4604A4503D06E
:100AA00031803B8903803A81E1464B1CE6D14C46BC
:100AB000B846002C00DBF8E640BF03B0F0BCBB46F4
:100AC000B246A946A046F0BD9A684245ACD9B7E700
:100AD000631C00D0F4E6FEE6200023699847002856
:100AE00025D1534642461B8813811269EFF31083C8
:100AF00072B611680029FCD0BFF35F8F42465146A1
:100B000052880A804246494651801269BFF35F8F7E
:100B10000021116083F31088B6E6864200D8FBE618
:100B2000B2E60B4800F018FA0019694115E765684C
:100B3000246807E7854200D8D5E6BDE7874200D89C
:100B400028E737E7B80400203C700540590800103A
:100B50000040054070B52E4C2569002D04D00A21B7
:100B60002C48FFF731FE70BD2B4E0321300000F002
:100B7000E9F9E660FFF7C0FD284B03229C46D0232D
:100B800022701B061B6801216370254B6044A36023
:100B90000F23800020610220638063694942A180A5
:100BA00019800231198647311D83585218315A5223
:100BB00075325C399952183201319952183201312B
:100BC0009952183201319952083518329D5202312A
:100BD0001832995218320131995218320131995212
:100BE00018320131995218320131995218320131BB
:100BF00099520C4B0C49DC6001303562FFF7BAFDAD
:100C000001210320FFF7A4FD084B1D60A7E7C046A4
:100C10009C010020CC05002000400540400000342D
:100C2000FFFF1000B804002059080010386005408C
:100C300070B501000469EFF3108C72B620680028CB
:100C4000FCD0BFF35F8F02200D5E4C696800401935
:100C5000C0002418002D37DB208848800869BFF3C6
:100C60005F8F002606608CF31088E3606388049829
:100C7000013320615B0405985B0CA26060611A1C63
:100C8000002B1FD093B22804628018430A69EFF347
:100C9000108C72B61368002BFCD0BFF35F8F8B886B
:100CA00023808D800B69BFF35F8F00221A608CF365
:100CB00010880B7801329A40CB6808498C4663440F
:100CC0001A6070BD0122DDE70B69BFF35F8F002260
:100CD0001A608CF3108801204042F2E73C200000AB
:100CE00010B543890A1493421ADD53009B184269D8
:100CF000DB00D3180469EFF3108C72B62268002A67
:100D0000FCD0BFF35F8F5A88090494B2090C8A4261
:100D100008D00369BFF35F8F00221A608CF310883C
:100D2000002010BD8022120214435C80012302695E
:100D30008371BFF35F8F002111608CF31088044929
:100D400002788C469340C268012062441360E8E751
:100D50003C200000F0B504000D0006267642F7178F
:100D6000C64636196F4100B582B08F4214D811D0F3
:100D700000F0FAF832003B00121A8B41002B17DC0E
:100D8000002B47D02000290000F0F8F802B080BC0A
:100D9000B846F0BD8642EBD90022002316001F00A2
:100DA00000F0E2F832003B00121A8B41002BE7DD25
:100DB00000F0DAF832003B00121A8B41002B0ADBFC
:100DC00000230193154B3200009315483B00FFF7B9
:100DD0002FFF0028D6DB00239C46B046114A124E56
:100DE000736A9F4204D8B16A8845CBD99F42C9D162
:100DF0001168EFF3108072B60B68002BFCD0BFF3C4
:100E00005F8F1368BFF35F8F6146196080F31088AE
:100E100020BFE5E7002AB5D0CAE7C0462908001080
:100E20009C010020CC0500200040054070B5060064
:100E300000F09AF8FA2204000D000023300000218F
:100E4000920000F0B9FE8023001969411B06994207
:100E500002D3012002494042FFF77CFF70BDC0462B
:100E6000FFFFFF7FF0B5CE46474680B504000D007A
:100E700083B0EFF305878846002F3ED12E4EA14662
:100E80003378F06804339B00816A1B58601A5B1A40
:100E900098420ED320BF294900204B6AAB4203D3AE
:100EA0008A6A0130944231D803B0C0BCB946B0461A
:100EB000F0BD00F059F822002B00121A8B41002BD4
:100EC0002FDB1F4B2200009330002B000197FFF710
:100ED000AFFE011E25DD194B5A6AAA421BD220BF64
:100EE0003000FFF7FDFE154A0020536A4345DBD36F
:100EF000926A01309145D7D908E0104900204B6A29
:100F0000AB42D1D38A6A0130A242CDD25B1B5A1EBA
:100F10009341D8B2C8E79B6A9C42E1D9AA42DFD18B
:100F2000DDE7064A0020536A4345BDD3926A01209B
:100F30009145B9D9EAE7C0469C0100200040054030
:100F40002908001010B5024A0248FFF7B3FB10BD94
:100F5000DC380010680400200300416A0A00986A27
:100F6000596A8A42FAD17047034B596A0A00986A53
:100F7000596A9142FAD1704700400540064A536AC7
:100F80009942FCD807D1044B02E05A6A914202D13F
:100F90009A6A8242F9D3704700400540F8B5DE46B0
:100FA0004E4657464546E0B58B4605000A9918005F
:100FB000160000F08FFA0A9B6C001F02324B641976
:100FC0009C46A4006444636881469F4200D96760E0
:100FD0002B1FDBB29846012B30D9C02380229B0106
:100FE000E31812011A60294BAD0059599A4600299D
:100FF0001BD17301E026226853401E4080234246E5
:101000005B01E3181E60012A30D9802380229B01F6
:10101000E31812011A6053464A4667605A51F0BC01
:10102000BB46B246A946A046F8BD586900F052FA40
:10103000013043001B18033BFDD2DAE75B46012B6E
:10104000CBD1C02303229B01E3181A60023AA368A4
:101050001A42FCD07301E0262268AD0053401E40C6
:1010600080230A4A5B019246E3181E605A462168B3
:10107000514003220A401A6001225B469A40A3684D
:101080001A42FCD0C1E7C046008000406C0400203A
:10109000F0B546464F46D646C0B51F00344B440017
:1010A0009C462418A4006444636888461600FF2BFD
:1010B00002D880235B006360031FDBB29A46012BDA
:1010C00030D9C02380229B01E31812011A60294BFA
:1010D00085005959994600291BD17301E0262268E1
:1010E00053401E40802352465B01E3181E60012AD4
:1010F00030D9802380229B01E31812011A608023DB
:101100005B0063604B465F51E0BCBA46B146A846FF
:10111000F0BD586900F0DEF9013043001B18033BB5
:10112000FDD2DAE74346012BCBD1C02303229B013A
:10113000E3181A60023AA3681A42FCD07301E02651
:101140002268850053401E4080230A4A5B01914675
:10115000E3181E6042462168514003220A401A608B
:10116000012342469340A2681342FCD0C1E7C04627
:10117000008000406C040020014B8000C058704784
:101180006C040020F8B5040021481E0017000D0073
:1011900000F0A0F90100380000F09CF9069B36042D
:1011A0001B031E432368002B20DB1A4B1A49E3184C
:1011B0005A1E93418022920194465B421B0B174AB0
:1011C0001B0363441360164A13601F000A689743A9
:1011D000FBD1144B2560E2182123A0601360236823
:1011E000002BFCDA0823E6601360F8BD3F23226879
:1011F0001340AB42D9D1A3681B051B0D8342D4D148
:10120000EE22E368D2021340B342CED1EDE7C046EE
:10121000001BB7000040FDBF08C0004000E00040D8
:1012200000F00040043000008023024A9B000B4382
:10123000D362704700800540142310B50100188860
:1012400004331B88984710BD162310B50100188879
:1012500002331B88984710BDF8B54746CE4680B587
:101260000F1E19D0142399460433040000250126CB
:1012700098464B461888434621681B88984701C406
:10128000431E9841013540420640AF42F1D1300043
:10129000C0BCB946B046F8BD0126F8E7AA23064A05
:1012A0001B0113602F230549D360054B1960536858
:1012B000002BFCDA7047C0460040024000B0FA0044
:1012C000006002407047C04610B50148FFF7DAF9E8
:1012D0000039001070B5074D074EB54209D2002401
:1012E000013E761BB60808CD984723000134B3426F
:1012F000F9D170BD70380010AC380010054B064AAB
:1013000006491A60064A074B1A6010000B6898439A
:10131000FBD1704700E00040BFCDFBFE08C000409D
:10132000FE7F3C0000F00040044BDB6C002B03D13F
:101330008022034BD2021A607047C0460000115051
:101340004C201150044A054B1A60054A1368DB0112
:101350008033FBD17047C046FFFFFF0100F0004023
:1013600008C000404022034B9A675A671A67DA6642
:101370007047C04600F0014010B5FFF7C9F910BD35
:1013800070B5044D044CA968C022200000F06AFC2E
:10139000AC6070BD00ED00E000000020002310B53F
:1013A000294C82B0A367FFF779FF0122274B1A600F
:1013B000636C012BFCD10322254B1A60224A936BEC
:1013C000012BFCD1013300930121224A224804332E
:1013D000FFF7D8FE052301210093204A2048FFF79C
:1013E000D1FE0022022104201E4BFFF751FE0022F5
:1013F000012105201C4BFFF74BFE00220021072096
:101400001A4BFFF745FE002200210820174BFFF77B
:101410003FFE8023DB000093002200210920134BB4
:10142000FFF7BCFD0022104B00210620FFF730FE25
:101430000420FFF7A1FE0E4900F04CF80100002047
:10144000FFF7F2FE02B010BD008000403CB000404B
:1014500030B00040002F685900800240008C864761
:1014600000C00240001BB70040597307006CDC024B
:1014700040420F0001480421014B1847C0010020E1
:1014800059120010124A936F9B0815D29066D166CC
:10149000002905D0FFE7FFE7FFE7516F106F7047A6
:1014A00004B580210906C2175140002800D0C84366
:1014B00002F0CEF9002104BDF0B5146E556E576FE1
:1014C000166FFFF7E3FF1466556657671667F0BDA2
:1014D000000000D0114A936F9B0813D2106651662A
:1014E000002905D0FFE7FFE7FFE7516F106F704756
:1014F00004B5002801D00020C04302F0A9F9002162
:1015000004BDC046F0B5146E556E576F166FFFF7E9
:10151000E5FF1466556657671667F0BD000000D0FA
:1015200094464A4A926F9208624601D228E0C04629
:10153000F0B5464E346E756E776F366F00F020F85A
:101540009446424A14665566576716676246F0BD70
:1015500094463E4A926F9208624601D254E0C046D9
:10156000F0B53A4E346E756E776F366F00F04CF80A
:101570009446364A14665566576716676246F0BD4C
:10158000002B24DB11D000293EDA00B5C9434042CC
:1015900000D1013100F038F8C943404200D1013197
:1015A000DB43524200D1013300BD002AEBD10028B9
:1015B00001D1002905D00020C90FC90701D1C043BE
:1015C000410800B502F03CF90022002300BD00B53F
:1015D00000290ADBDB43524200D1013300F014F84A
:1015E000C943404200D1013100BDC943404200D14E
:1015F0000131DB43524200D1013300F005F8DB43F7
:10160000524200D1013300BD002923D1002B18D153
:10161000002A0CD0BC460D4F38667A6600210023A4
:10162000FFE7FFE7FFE77A6F386F674670470028EC
:1016300001D00748010000B502F002F900220023A2
:1016400000BD02000B00002000217047000000D008
:10165000FFFFFFFF002B00D0BFE0130C28D1002AB2
:10166000E7D080B4114F39667A66FFE7FFE730B400
:10167000040C7B6F396F1B0423433B667A66FFE7DC
:10168000FFE7FFE7C04684B27B6F3D6F1B04234337
:101690003B667A66FFE7FFE7C04600232C042D0C6B
:1016A0007A6F386F00196941B0BC7047000000D0F4
:1016B000F0B594460025140E01D112020835140F1E
:1016C00001D112010435940F01D192000235D40FDB
:1016D00001D152000135D40B0134254F7C66254CD5
:1016E0003C660E0C93B2FFE7FFE7FFE73C6F6643F3
:1016F000360C7703BE467343DF0B5B04C01AB94157
:10170000130C7343DB18C91ACE086643360CB64473
:1017100093B273431F0F1B01C01AB941130C7343DB
:101720001F0B1B05C01AB941860D8F023E4366434D
:10173000360C092D24DB520A7243801A7703460ABD
:101740006643360C16235B1BDE40DF40BF19644640
:101750006643821B7046043506330100D940A84019
:10176000C01900D30131A24206D20023F0BD00000F
:10177000000000D0FFFFFFFF121B0130F3D3F1E7A1
:1017800009277F1BFE406446A2B27243801A00D232
:101790000139220C7243130C1204821A99410B0076
:1017A0007046043513370100F940A840801900D372
:1017B0000131002B02D1A2420AD2F0BD013000D388
:1017C0000131121BFAD2013BF8D1A24200D2F0BD86
:1017D000013000D30131121BF7E7F0B51C0C00D02B
:1017E00080E00CB400251C0A04D11B02160E334302
:1017F000120208351C0B04D11B01160F33431201D2
:1018000004359C0B04D19B00960F334392000235A4
:10181000DC0B02D192185B4101351C009718644122
:101820000134464F7C66464C3C660E0CFFE7FFE7F2
:10183000FFE7C0463C6F6643360C7703BE4697B25F
:101840007743C01B00D20139C01B00D201399FB2BF
:101850007743C91BC91B170C77437E04FF0B801B02
:10186000B941CE086643360C0C2D33DBB644120B5F
:101870001F053A431B0B97B27743C01B00D20139B7
:101880009FB27743C91B170C77433E043F0C801B64
:10189000B941860D8F023E43664329277F1BFE40D8
:1018A0000C3D7746AF40BF1930BCA2B2ABB2724319
:1018B0007343801A9941220C7243130C1204801A4C
:1018C000994102000B000137001BA941F9D2781E93
:1018D0000021F0BD0C277F1BFE4077467F0BAF40F9
:1018E000FF19E0E700245D1C07D0144F7D663966C0
:1018F000FFE7FFE7FFE7FFE73C6F95B29EB2654366
:101900006643401BB141150C1E0C6543664336040B
:101910002F0C3E432D04401BB141994204D20200DA
:101920000B0020000021F0BD01D19042F7D3801AB6
:10193000994101349942F2D3F6E70000000000D04B
:10194000FFFFFFFF48404140484018B4134B5B681D
:10195000019308BD18B4114B1B68019308BD944650
:101960000F4A926F920805D2624618B40B4BDB689F
:10197000019308BD0A4AF0B5146E556E576F166F85
:101980006246FFF7F2FF064A146655665767166708
:10199000F0BD18B4014B9B68019308BD680300209B
:1019A000000000D0FFB550404240504059404B40ED
:1019B000594000E0FFB5154F4C00640D03D0BC4208
:1019C00004D10C0314D80020090D09055C00640D36
:1019D00003D0BC4204D11C030AD800221B0D1B05F6
:1019E00001264B4009D44B4003D58B4200D18242A3
:1019F000FFBD9942FCD19042FFBD0B43DB1803436E
:101A00001343F5D0C9434918FFBD0000FF0700008C
:101A100000B5FFF7CFFF804100BDC04600B5FFF71E
:101A2000C1FF01D9002000BD012000BD00B5FFF7B6
:101A3000B9FF804100BD012040054A00121804D8BA
:101A40005A00121801D8002070470120704700008A
:101A50000021002805D17047C1174840401AFAD02C
:101A6000C90713B5064B1B6898470CBC441CA24021
:101A70001005120B0349091B09051943114310BD39
:101A8000C80400201F04000010B54C00620D802324
:101A9000D218DB00D21A5B057E2A10DD9E3A13DADB
:101AA000CC170903490819435242D140640001345C
:101AB0001532202A05DAD0400843604310BD0020CB
:101AC00010BD0846604310BDC80FC018013810BDD6
:101AD00018B4024B5B6A019308BD00006803002044
:101AE00010B50148FEF7CEFD0C390010132370B578
:101AF0001D78012D19D014DD1D48FFF7A5FB060048
:101B00001C48FFF7A1FB1C4C80223100200000F094
:101B1000A9F8022D06D01948FFF78EFB184B186064
:101B200070BD154C174BA364F5E7174B124C23609F
:101B30006360A360E36023616361A361E361236287
:101B40006362A362E36223636363A363E363236467
:101B50006364A364E36423656365A365E365236647
:101B60006366A366E36623676367A367E367D9E7F2
:101B70005344000053460000680300204C3300002B
:101B8000C80400208D1B0010E11A001007B5604644
:101B900001880A0A0230DF2AFAD1C9B2820804D3C6
:101BA000028840880004104300E00068014A505059
:101BB000039007BD6803002051434343C9188C4676
:101BC000110C83B24B4310B4040C614392B280B247
:101BD000504362431C041B0C001910BC59411304F0
:101BE000120CC018514161447047000010B5014803
:101BF000FEF748FD68390010132310B510481C7813
:101C0000FFF722FB0100012C0AD003DD80220D48E2
:101C100000F028F80C48FFF70FFB0C4B186010BDC4
:101C2000084C5422200000F01DF8220008498032A0
:101C30002368002B00D1216004349442F8D1E9E7F5
:101C400053460000CC0400204C330000C8040020A0
:101C5000ED1B001001480421014B1847D001002062
:101C600059120010014B5B6818470000D00100209A
:101C70007047C046F8B55746DE464E464546E0B585
:101C800099460A9B07009A460D9B884693460B9CF3
:101C90009B073BD10C9B9C423DD21E1B0B94150015
:101CA0000C005E442A004B46013521002020B84735
:101CB000B542F7D1A0460B9C002C20D045463619E2
:101CC0005346321B013C185D29004B46B847002C97
:101CD000F6D12B00350098460D9B9B070FD55B4630
:101CE000EC1A0C9BA3420AD9464698462A004B465A
:101CF000310020200134B84701354445F6D328008F
:101D0000F0BCBB46B246A946A046F8BD1600150079
:101D1000002CD3D1E0E71600002CCFD11500EEE760
:101D2000F0B54F464646D646C0B584B098460EAB91
:101D30001B7894469946129B0D9C109F119E9A0702
:101D400025D4002E65D1BC4221D201221A409246F0
:101D5000202C00D1E9E00C9A551E302202E0202C04
:101D600000D17BE001342A55A742F8D85246002A18
:101D70000DD0B4420BD20C9A551E3022202C02D129
:101D800071E0202C2DD001342A55B442F9D1DA0665
:101D90003CD55A052ED4002C28D10F9A102A00D1F8
:101DA000B6E0022A00D1BCE030220C9C2270012453
:101DB0004A46002A65D15A0700D499E02B220C9D8F
:101DC0002A55013403930C9B6246009302964346C6
:101DD0000194FFF74FFF04B0E0BCBA46B146A846F5
:101DE000F0BD2024DA06EDD55A0503D4A74266D00B
:101DF000B44264D00F9A102A71D0022A57D0202CF6
:101E0000E0D02200013430250C9FBD54202CD9D0C5
:101E1000CEE7012215001D40AA461A4236D04A4696
:101E2000002A4AD10C321A4247D1BC42A1D2202CFE
:101E300091D1202E17D82024DA06C3D55A051BD4F9
:101E4000202F01D0202ED5D11F220F9D102D6FD015
:101E5000022DD8D162250C9FBD54D0E75246002AEE
:101E600079D0202EBDD92024DA06ABD55A0503D46B
:101E7000202FE9D0202EE7D00F9A102AA2D12024BB
:101E8000A0E72D220C9D2A5501349BE7BC4200D3CC
:101E90007DE7202C00D05EE7DA06F0D55A05EED4B7
:101EA000202F62D0202EEAD134001F22CDE7202C33
:101EB00000D187E722000134CCE7013EB5E7621E7E
:101EC000012CC2D10F9A102A00D06AE79A063BD59E
:101ED00058220C9C2270283A6270022468E79A0605
:101EE0000ED4202CCBD078220C9D2A55013486E7C5
:101EF0001A0700D466E720220C9D2A55013461E7B9
:101F0000202CBCD058250C9A12191570013476E794
:101F10009A0608D558220C9C227030226270022446
:101F200046E76032F7E77822F5E7002A83D1B3E786
:101F3000A21E013C9D0603D478250C9FBD5460E78A
:101F400058250C9FBD545CE778220C9C2270483ABF
:101F5000627002242CE7DA0600D433E75A058BD4EA
:101F6000202F00D044E71F226FE73C001F226CE7C0
:101F700010B5002800D110BD01F04AFBFBE7C046B8
:101F80000B0010B5002802D049681B68984710BDA7
:101F9000F0B557464E464546DE46E0B599B0824616
:101FA000894690460893229A239B10001900FFF758
:101FB00042FD002800D0CDE0229823990122D94B80
:101FC0005242FFF733FD002800D0C3E02298239946
:101FD0000122D54B5242FFF71BFD002800D0B9E08B
:101FE0002298239900220023FFF712FD002800D039
:101FF000F1E1229E239F8023269ADB001A400D9256
:10200000269A1A4201D1062324938023269A1B0183
:102010001A403B0093460996334300D0B3E0002AB0
:1020200000D0C2E1002300240A930B94002304256E
:102030000993259B0024AB4200D95C1B0223269AFE
:102040001A400C92269A134203D06B426B415B42BA
:102050001C40099B002B07D00A9A0B9B30003900CB
:10206000FFF77DFC06000F00229823990022002331
:10207000FFF7CEFC002803D0802109067B181F0043
:10208000269AAA4B009601971340089E0493249B1E
:1020900003940293424633004946504600F0AAF9A1
:1020A0000400002D67D02020269A494602401300E4
:1020B0005A4253415B42621C18400A92330022008C
:1020C0004530D047099A6F1ED317D4185C40D30F00
:1020D0009B46002501E0202D13D008AA94461F231B
:1020E000200063440A2101355E19FFF7F3F930310E
:1020F000317020000A21FFF7EDF926000400092EB7
:10210000E9D805230693002304930A3303935B461F
:10211000089E029310AB0A9A00934946330050463A
:1021200005970195FFF7FCFD0C9A0400002A22D0C8
:102130004246851A259AAA421DD9B046574616002E
:1021400022004346494620200135B8470134AE42BB
:10215000F6D810E0269B42460493259B49460393FC
:10216000249B50460293229B239C00930194089B3E
:1021700000F040F90400200019B0F0BCBB46B246A4
:10218000A946A046F0BD6A4B78009C46400D6044CD
:10219000FFF762FC674A684BFFF7FBFB674A684B37
:1021A000FFF7D8FB674A3B031B0B1A4304000D00E3
:1021B00009981100644B0022FFF7C7FB634A644B88
:1021C000FFF7E7FB02000B0020002900FFF7C2FB2E
:1021D000FFF75AFC0990FFF73FFC5E4A5E4B040094
:1021E0000D00FFF7D6FB00225C4BFFF7B3FBFFF7B8
:1021F0004BFC5B4A5B4B29000C902000FFF7C9FBAE
:1022000004000C980D00FFF727FC574A574BFFF7C7
:10221000C0FB02000B0020002900FFF796FB040022
:102220000D0002000B000A940B95FFF7B2FB0400AF
:102230000D000A980B9902000B00FFF78BFB0022A0
:102240000E900F914A4B20002900FFF788FB0022D7
:10225000484BFFF77FFB02000B0020002900FFF72F
:102260007EFB0022444BFFF775FB02000B002000B1
:102270002900FFF774FB0A9A0B9B0D0080210400D4
:10228000C9050020FFF761FB02000B0020002900B8
:10229000FFF760FB02000B000E980F99FFF75FFB42
:1022A0000022284BFFF756FB344B0C9C9C466444A1
:1022B00023050022FFF76DFB04000D0002000B0058
:1022C000300039000A940B95FFF7A2FB00285DD17E
:1022D00023002A00C625099963318D42AD41594634
:1022E0006D420435002900D1A3E6134363D03000CA
:1022F0003900234A234BFFF791FB002807D0002227
:1023000030003900204BFFF783FB002853D1249B7A
:10231000002B00D18DE60D9B5A1E9341249AD31AAF
:10232000249386E6FFFFEF7FFFFFEFFFFFF7FFFF3E
:1023300001FCFFFFFB799F501344D33FB3C8608B70
:10234000288AC63F0000F03F0000F83F61436F63FA
:10235000A787D23F71A379094F930A400000E03F5D
:102360001655B5BBB16B0240EF39FAFE422EE63F7F
:1023700000002C400000244000001840FF03000033
:102380002D431CEBE2361A3F80842E41099B00222C
:10239000013B09932000164B2900FFF7E0FA0A00E1
:1023A000010003000A910B9294E7002300240A9392
:1023B0000B9400230993249A099B9A4214DDD31AA3
:1023C000013B24938023269ADB001A430023002537
:1023D000269209932DE6802212069446229B1E0027
:1023E000239B63441F0006E600232493EAE7C046CC
:1023F00000002440F0B54546DE464E465746E0B55F
:1024000095B08B46904699461E9A1F9B0A901900DC
:102410001000209DFFF70FFB002800D0B0E11E98B0
:102420001F990122C74B5242FFF7F2FA002800D051
:1024300037E11E981F990122C34B5242FFF7F6FA6B
:10244000002800D0A7E01E981F990022BF4BFFF77D
:10245000EDFA002800D088E01E981F990022BC4B9E
:10246000FFF7D6FA002800D07FE01E981F990022BF
:102470000023FFF7CDFA002800D0FAE000230B93E9
:102480008023229C229ADB001C401A4200D102E1E8
:10249000092D00D87CE106A98C462C0017220023C8
:1024A0003021093C62440133D154EF1A202B00D172
:1024B00032E1A342F7D10022A44B069207931E9863
:1024C0001F99FFF7E1FA0500FFF7C6FA02000B00BB
:1024D0001E981F99FFF739FA069A079BFFF759FADA
:1024E00008900991FFF7F4FA0600FFF7B1FA02002D
:1024F0000B0008980999FFF728FA0022954B0890DD
:102500000991FFF793FA002800D1D2E0013630009C
:10251000FFF79EFA069A079BFFF780FA002801D082
:1025200000260135AA46002F00D098E02800FFF7CA
:1025300093FA02000B001E981F99FFF706FA854BCD
:10254000002206000F00FFF763FA0CAB9A46002842
:1025500045D10022300039007E4BFFF767FA002892
:102560003DD1EB073BD5013539E0229B4246049330
:10257000219B594603930A981E9B1F9C029500932A
:1025800001944B46FFF704FD15B0F0BCBB46B246C4
:10259000A946A046F0BD229B5B0767D403226E4B81
:1025A00022990192039121990291009342464B4650
:1025B00059460A98FFF75EFBE6E706AA94461723FA
:1025C000280063440A2101341E19FEF75BFF3031F5
:1025D000280031700A21FEF755FF051E76D0202C09
:1025E000EBD10323229A1340012B1DD1219B002BF9
:1025F0001AD00B9B002B00D0BBE0229A0C33134265
:1026000000D0B6E0219BA34200D887E006AB9C46F1
:1026100017223023624404E02199013413558C427F
:1026200059D0202CF8D12024229B01940393219B84
:1026300002935346B9E706AA944617230A21634436
:10264000300001341D19FEF745FF3031297030008C
:102650000A21013FFEF73EFF092E46D90600202C35
:10266000E9D155460CAB20249A46B8E704223B4BEF
:1026700096E71E9A1F9B00200021FFF766F90123B1
:102680000B938023229C229ADB001E901F911C40FA
:102690001A4200D0FCE60022314B0627069207932F
:1026A0000DE7229B0393219B0293042301932D4B5F
:1026B0007BE7002208980999264BFFF7A9F9002823
:1026C00000D02FE7002E4FD101362BE70323229AAB
:1026D0001340012B66D0202CA6D00B9B002B1FD0C3
:1026E0002D235246135501349EE75546202CB9D070
:1026F00030233A19002F08D0172006A901340918F1
:102700000B55202CAED09442F6D10CAB9A462E231A
:1027100052461355013462E72024CCE6202C83D0A6
:10272000229B5B0708D4229B1B0700D47CE7202355
:1027300052461355013477E72B2352461355013483
:1027400072E7C046FFFFEFFFFFFFEF7F65CDCD4192
:1027500065CDCDC10000E03F6C3900106439001038
:1027600080842E4174390010F30700D4DAE6013674
:10277000D8E6219B013B2193A34200D946E7AAE773
:10278000229B0393219B029303230193074B0CE7A6
:10279000074BEA009B185C681B682F0006930794A0
:1027A00000248CE6219B002B95D022E77039001085
:1027B000983B0010F0B55746DE464E464546E0B51C
:1027C000A5B01F002E9B91460D93CA4ACA4B824664
:1027D0008B461A60002900D129E2002338789846F8
:1027E000002800D12BE2C54B44460C93C44B554600
:1027F0004E460E930AE0631C984622003300594669
:10280000A84744463878002800D187E001372528BA
:10281000F1D108239A46043B9946023B9846013B76
:1028200000229C460B943878791C0300203BDBB2D5
:10283000102B03D80C9C9B00E3589F460300303BB1
:102840000B9C0B92092B3AD9002398462A2800D1D9
:10285000DDE000239A462E284BD00300683BDBB214
:10286000122B1ED80E9A9B00D3589F4663460F002A
:102870001A43D8E743460F001A43D4E74B460F00EC
:102880001A43D0E710230F001A43CCE753460F003A
:102890001A43C8E780235B000B9A78781A430B929F
:1028A00001310F0067284FD82428A4D90300253B05
:1028B000DBB2422B9FD893499B00CB589F46002305
:1028C00098460B9B47469C4600E00131BB00DB1954
:1028D0005B001F180878303F0300303B092BF4D908
:1028E00063460B930023B8469A460F0001312E2809
:1028F000B3D180200B9AC00002430B923022524287
:10290000944678780B0084446246092A00D8AAE1EC
:102910002A2800D1B9E10F0001319EE7A046AA465E
:10292000B146C84503D301235B424B4498464B460E
:10293000424659460020D047200025B0F0BCBB4697
:10294000B246A946A046F0BD01006939C9B20F29B7
:1029500000D950E701238B409C466B4B9946634658
:102960004A4613400F9362464B461A4200D068E134
:102970000A2956D0072900D03DE70D9B02CB984687
:10298000002900D092E10B9B10211A008A4310000D
:1029900011310843814680201A00C0000240110016
:1029A00003421CD114AB9C461F220F2362440D9599
:1029B0009C4615000F9B0B9402E0202B0CD01100BD
:1029C00064460C4020003730092C00D8073801330A
:1029D000E8540A090F29F0D80B9C0D9D0F934B4624
:1029E000082206935346059208320392002204936C
:1029F0000F9B029201931CAB2200009359463300B7
:102A00002800FFF78DF9434604000D93FAE60D9B6D
:102A100004CB9046002A79DB78780D930F000131C2
:102A200017E70D9B02CB14930B789C461800534676
:102A3000002B00D134E1002815D05346013B01336F
:102A400099460D940B9C89444A460B00A14601E02F
:102A5000934203D05C780133002CF9D14A465B1ACB
:102A60000D9C0B920F938023DB0099460B9A134029
:102A70000D934B461A4204D00F9B534501D9534640
:102A80000F93022399460B9A13400B934B46134224
:102A900000D1F5E16346002B00D1D6E10D9B002B60
:102AA00000D182E10B1BD14631009A463B00A14484
:102AB0002E005F464D4622009B46894609E04B4664
:102AC0003900541CB0475346185D002800D192E1EC
:102AD00022009542F3D14B465A46A946BB463500E3
:102AE00017001E004C460B9B002B00D0ADE1149B41
:102AF0000D9387E6B52700109C040020FC390010D8
:102B0000403A00108C3A0010419000000B9A28388F
:102B100002430B9242465242787890460F000D9342
:102B2000013196E678786C2800D15DE180230B9A1C
:102B30005B001A430B920131B3E680239B00ABE6A6
:102B40007878682800D148E180230B9A01311A4334
:102B50000B92A6E6672800D1B2E0472800D11AE11F
:102B6000452800D11CE10B9A0721049242460D9B97
:102B70000392073352468B43190002920CC9280076
:102B8000009201930D91220033005946FFF700FA9D
:102B9000040037E6462800D18DE00B9A0721049205
:102BA00042460D9B0392073352468B431900029213
:102BB0000CC92800009201930D9122003300594660
:102BC000FFF718FC04001DE6631C98462200330042
:102BD00059462520A847444614E60D9B04330F931D
:102BE000631C99460B9B9A0700D40AE10D9B2200B7
:102BF000187859463300A84743464444012B00D86F
:102C00006FE1B0462E0025004C46B9465F462200D3
:102C10004346013439002020B047AC42F7D12C00A4
:102C2000BB4635004F4646460F9B0D93EAE5D64B13
:102C300038789A4600239846002800D0D3E500242F
:102C40006FE66F2842D000D8FDE11023782800D12C
:102C50009BE00B9A9A430B920A239C460023149301
:102C60000A330F9338E057460B9AB900C919490047
:102C700001330F181878303F010030390929F4D991
:102C8000BA460B921F00591CE7E50D9BB87804CBA0
:102C90000237D143C9170A4092460D93791CDCE5EF
:102CA000002800D1DFE602235B42C8E621200B9A10
:102CB0000243914676E620230B9A1A430B926CE767
:102CC00080230B9A1B011A430B924CE708239C4666
:102CD0000023149308330F930B9880230200DB002A
:102CE0001A4011000200184200D080E00C239A43E1
:102CF0001000802302009B001A400B92184200D063
:102D0000F1E0802302005B001A4091460D9A0432E4
:102D10001492184200D0C3E2430600D5D7E0030660
:102D200000D421E30D9B1B880993002B00D02DE1DB
:102D300010339843002900D128E1002399464346E7
:102D40000593534604930F9B06900393002302932D
:102D50004B4601931CAB22000093594633002800D8
:102D6000FEF7DEFF0400C2E6582809D0622800D032
:102D7000E3E202239C460023149302330F93ABE754
:102D800020230B9A1A430B92103B9C46002314936A
:102D900010330F93A0E780230B9A1B011A430B9269
:102DA00020230B9A1A430B92DDE60B1B9A460F9BCE
:102DB00099463B0037005E469B4622003B003100AF
:102DC000A84753460134185D0028F6D14B460F93AF
:102DD0005B46B3463E001F0085E6C0230B9AB878D9
:102DE0001A430B92F91C5CE5C0239B00F6E70D2308
:102DF0009A4310007DE75B463500BB464E461F00F8
:102E000071E64346012B66D9631E434432002E000F
:102E10001D003B00A2465F4691469B4622004B4662
:102E2000013439002020B047AC42F7D15B46350071
:102E3000BB464E46A14654461F000D9B4A46187895
:102E4000594633004444A847EEE60F9BA1469845F7
:102E500000D84CE64444E41AB0462E0025004C4607
:102E6000B9465F4622004346013439002020B0476E
:102E7000AC42F7D12C00BB4635004F46464636E6FD
:102E80000F98804500D873E24346E218131A3200C7
:102E90002E001D003B0091465F469B460F9122008D
:102EA0004B46013439002020B047AC42F7D15B4695
:102EB000BB461F0043460F9901330F930B78350033
:102EC0009C464E466046002800D0E7E50FE60D9B85
:102ED0001B78099329E70D9B220018785946330087
:102EE000A8474C46A0E60D9AFA3BFF3B07329A43AF
:102EF0000133994691444B460D93136852681592DD
:102F00001A4306D11032904300220992002900D0C2
:102F100083E06122810600D54122D2B20A9214AA2E
:102F200091460A9A00210A3A0B924246179252465B
:102F300018925A46B24609911E001F31149B49440B
:102F4000BB4616941A950024674698468946159DF7
:102F500019901B920AE03032D2B24B4601341A5516
:102F6000A8454CD0202C4CD006000D003A00002380
:102F700030002900FEF7ECFAD2B2092AEBD90B9BFC
:102F80009C466244D2B2E8E7711C001061238206BD
:102F900000D54123DBB20A3B0B93434614A91F2201
:102FA0008C46159353466244B2460D9417974C468F
:102FB0008046A9461700099D0F9E169308E03033FE
:102FC000DBB201343B55B5420ED3202C0CD00500AA
:102FD00031002800FEF77EFACBB20929EFD90B9A0F
:102FE00094466344DBB2ECE7159B40469846169B3B
:102FF0004D465646A1469A460D9C179F9FE6B742FE
:10300000B0D9179B56469846189B5F469A461B9B1D
:1030100009949B46169C19981A9D4346059353465E
:1030200004930F9B0690039300230293099B019343
:103030001CAB22000093594633002800FEF770FEB7
:103040000400FFF7DFFB10230B9A9A430F926928C5
:1030500000D091E10B9980230A00DB001A40100098
:103060000A00194203D0112118008A430F920F9AC7
:10307000802311009B0019408C461A425BD18023AB
:1030800011005B00194089460D9904310B911A42D9
:1030900000D0B2E013005B0600D4EDE00D9B1B787E
:1030A0001A00D90F0D91002B00D1A3E0100014AA33
:1030B000944642461F23159252466344A846BA4698
:1030C0004D461494B14604001F00169201E0202DD5
:1030D0000FD020000A21FEF7FDF901357E193031AD
:1030E000317020000A21FEF7F5F926000400092EB0
:1030F000EDD8159B4E46A94645469846169B574621
:103100009A46149C0F9B069343460593534604939B
:103110000A2303930D9B02934B4601931CAB2200A1
:103120000093594633002800FEF7FAFD0B9B04007C
:103130000D93FFF767FB07220D9B07339343013283
:1031400094469C4462460D920CCBD90F0B91110012
:10315000194300D19BE0D91713911291514010915E
:1031600013995940119110981199129A139B801A32
:1031700099411090119114AA944642460023159249
:1031800052469946169232001F336344A8464E4673
:10319000BA4614941F00109C119D914601E0202E08
:1031A00010D0200029000A220023FEF7D1F90136B1
:1031B00030322B00BA550D0022000400002BEED156
:1031C000092AECD8159B10941195454698464B4614
:1031D000169AB14657461E009246149C0F9B0693C2
:1031E00043460593534604930A2303930B9B029390
:1031F0004B461CE7002885D159E70D9B1B68DA0F69
:103200001100002B00D1A6E0DA179818504014AA3C
:1032100091461F2342464B44A8460D94169704003E
:103220006546B1461F001491159201E0202D0FD084
:1032300020000A21FEF74EF901357E193031317038
:1032400020000A21FEF746F926000400092EEDD8D9
:10325000159BAC4645469846149B4E4619000D9C5E
:10326000169F0F9B02910693434605935346049382
:103270000A230393634650E713001B066ED50D9B8C
:1032800000229B5ED9175A184A4092B209E70023E0
:1032900099460028A2D100220023109211936AE7D8
:1032A0000D9B1B689946002B03D1103398430029CE
:1032B00038D16123820600D54123DBB20A3B0D934E
:1032C00043461693534614A91F228C4617932B008E
:1032D00062444D46B24615941897804617009946A9
:1032E0000B9C0F9E08E03033DBB201343B55B542F6
:1032F0000ED3202C0CD0050031002800FEF7EAF890
:10330000CBB20929EFD90D9A94466344DBB2ECE7BE
:10331000169B40469846179B56464D469A460B9438
:10332000189F159C43460593534604930F9B0690A4
:103330000393002302930B9B0BE50B9980230A0058
:10334000DB001A4010000A00194200D08BE610235F
:103350009A430F928BE6002883D158E70D9B1B6898
:10336000D9175A184A409CE60D9B1B680993DCE468
:10337000030001330F93A5E50B926DE400B585B012
:103380000391012102900093034813004A4202A9CD
:10339000FFF710FA05B000BD811F001010B5094AF3
:1033A0000300146884B0002C08D001220091064864
:1033B000524203A9A047012004B010BD00F074F9E7
:1033C0000020F9E79C040020711F001000BEFDE7FB
:1033D00010B5FFF7FBFFC04670B5FDF77BFF074D4B
:1033E000074EB54209D20024013E761BB60808CD2F
:1033F000984723000134B342F9D170BDAC380010B6
:10340000B0380010030010B5080011001B68984781
:1034100010BDC046F0B5C64600B5437D07000D009F
:103420001600002B38D0002A2EDD00216A1E90469F
:103430006A5C037D4C1C00200A2A0CD0A64216D0E0
:1034400043461B5D21000D3B5A4253416A5CDBB28F
:103450004C1C0A2AF2D1002BF0D1884217DB022142
:1034600010483B689847A64207D02000E8E786420C
:1034700003DD311A3B6828189847AD19013D2B78B8
:103480000D3B5A4253413B7580BCB846F0BD091A0A
:103490003B6828189847E2E703681100280098471E
:1034A000F2E7C046E83B0010F0B5C6460B680600E0
:1034B0000C0000B5802B06D05A1C2260E41826713F
:1034C00080BCB846F0BD0F4B1D68002D16D00B1DFB
:1034D00098460D4F02E02D69002D0FD02B68002B70
:1034E000F9D03B68002B01D0AB42F4D12800414613
:1034F0002268FFF78FFF2D69002DEFD101220023F5
:10350000DBE7C0469404002098040020F0B5DE46B6
:1035100057464E464546E0B585B017001C000600EC
:103520000D00FDF721FD0023314A12184B41802187
:1035300009068B4202D301222E4B52422E4908002B
:103540008A4600F08DF901906B1C03D1300000F029
:103550003FF90500002C26D0284B9846284B1C68C4
:10356000002C15D0002F21D1264F02E02469002C19
:103570000ED02368002BF9D03B68002B01D09C4271
:10358000F4D120002A003100C0472469002CF0D17A
:10359000019B002B28D1280005B0F0BCBB46B246E9
:1035A000A946A046F0BD184B9846D7E7154B99465B
:1035B00002ABDF1D0A239B4602E02469002CE7D002
:1035C0002368002BF9D04B461B68002B01D0A34287
:1035D000F3D12A0031002000C0475B4601223900A8
:1035E00020003B70C047E8E7504600F021F9D2E7E1
:1035F00040420F00FFFFFF7FE00100201534001064
:103600009404002098040020053400100020704726
:10361000F0B5CE46474680B583B06B460600DD1D4B
:103620002870FDF7A1FC00231A4A12184B41802193
:1036300009068B4202D30122174B52421749080058
:10364000884600F00DF9164B81461C68002C14D0FA
:10365000144F02E02469002C0FD02368002BF9D00E
:103660003B68002B01D09C42F4D1200001222900AC
:10367000FFF7D0FE2469002CEFD14B46002B05D17B
:10368000300003B0C0BCB946B046F0BD404600F0C3
:10369000CFF8F5E740420F00FFFFFF7FE001002079
:1036A000940400209804002070B5040000F090F805
:1036B00001230100050001222000FFF727FF084B2E
:1036C0001C68002C06D06368002B05D0984724693D
:1036D000002CF8D1280070BD2469002CF3D1F9E743
:1036E00094040020F0B5CE46474680B5A3B0040050
:1036F0000D00FDF739FC0023294A12184B418021A7
:1037000009068B4202D30122264B5242264F380033
:1037100000F0A6F800230600019322002B002348A6
:1037200001A9FFF72BFE019B8046002B14D1204BF3
:103730001C68002C06D06368002B0BD098472469C6
:10374000002CF8D1002E25D1404623B0C0BCB9468C
:10375000B046F0BD2469ECE7154B1D689946002D75
:103760001CD0144C02E02D69002D0FD02B68002BCB
:10377000F9D02368002B01D0AB42F4D12800019A84
:1037800002A9FFF747FE2D69002DEFD14B460195A9
:103790001C68CEE7380000F04BF8D5E70195D1E77B
:1037A00040420F00FFFFFF7FE0010020A93400101E
:1037B00094040020980400200FB400B583B004A93D
:1037C00001C90191FFF78EFF03B008BC04B0184790
:1037D00010B583070AD00300032102E001330B4236
:1037E00005D01A78002AF9D1181A10BD03001968FB
:1037F0000C4A0D4C8A188A4322420FD15968094A53
:1038000004338A188A43224208D15968054A04338E
:103810008A188A432242F1D000E001331A78002A44
:10382000FBD1E1E7FFFEFEFE80808080F8B5C04658
:1038300001B40248844601BC604700BF5D0100201E
:1038400001B40248844601BC604700BF85010020E6
:1038500001B40248844601BC604700BF85010020D6
:1038600001B40248844601BC604700BFC10000208B
:10387000FD1200102913001075140010551C0010C3
:10388000ED1A0010F91B00109D13001045130010D5
:103890006513001079130010D90700108113001070
:1038A000550B0010C51200102D070010B1020010BA
:1038B0005465636C61207072657373696F6E6164C7
:1038C000613A2025630A00000A2A2A2A2050414E24
:1038D0004943202A2A2A0A000A000000486172642B
:1038E0007761726520616C61726D20256420616C66
:1038F000726561647920636C61696D6564000000C4
:103900004861726420617373657274006D697373CA
:10391000696E6720646F75626C652066756E63748E
:10392000696F6E0052656C6561736500626F6F74DC
:10393000325F77323571303830000000302E310080
:10394000322E312E300000007069636F5F77000007
:103950007465636C61646F004A616E20313520329A
:1039600030323500666E692B00000000666E69001B
:103970006E616E00666E692D00000000060000009A
:10398000070000000800000009000000020000001D
:103990000300000004000000050000000600525073
:1039A000D3F075422439001006005250E182887F1E
:1039B0002C390010060052503ABCA9113C390010B5
:1039C00006005250ABB3605340390010060052500D
:1039D000BBFF3CB64839001006005250861C03025B
:1039E00050390010060052505422A29D5839001040
:1039F00005005250DE65F468343D00108C2800103C
:103A00003C2800103C280010842800103C2800109E
:103A10003C2800103C2800103C2800103C280010D6
:103A20003C2800103C2800107C2800103C28001086
:103A3000742800103C2800103C2800106C2800104E
:103A4000402B0010A22800103A2B0010A2280010D2
:103A5000242B0010A2280010A2280010A228001079
:103A6000A2280010A2280010A2280010A2280010EE
:103A700094280010A2280010A2280010A2280010EC
:103A8000A2280010A228001094280010C82B0010B3
:103A9000F6270010F6270010F6270010F627001072
:103AA000F6270010F6270010F6270010F627001062
:103AB000F6270010F6270010F6270010F627001052
:103AC000F6270010F6270010F6270010F627001042
:103AD000F6270010F6270010F6270010F627001032
:103AE000F6270010F6270010F6270010F627001022
:103AF000F6270010F6270010F6270010F627001012
:103B0000F6270010F6270010F6270010542B00109F
:103B1000942B0010542B0010F6270010F6270010ED
:103B2000F6270010F6270010F6270010F6270010E1
:103B3000F6270010F6270010F6270010F6270010D1
:103B4000F6270010F6270010F6270010F6270010C1
:103B5000F6270010F6270010682D0010F627001039
:103B6000F6270010F6270010F6270010F6270010A1
:103B7000F6270010F6270010F6270010F627001091
:103B8000682D0010DA2B0010682D0010542B001047
:103B9000942B0010542B0010000000000000F03F98
:103BA0000000000000002440000000000000594018
:103BB0000000000000408F40000000000088C3406B
:103BC00000000000006AF8400000000080842E41E0
:103BD00000000000D01263410000000084D797412C
:0C3BE0000000000065CDCD410D0A000082
:103BEC009C390010A8390010B4390010C0390010ED
:103BFC00CC390010D8390010E4390010F03900101D
:103C0C00F0B5C646150000B504001E000268EFF3BF
:103C1C00108172B61368002BFCD0BFF35F8F0423A6
:103C2C00E356002B2DDB2268BFF35F8F0020106062
:103C3C0081F31088D0221206127852B290469A4222
:103C4C0003D1002080BCB846F0BD00270BE02368F0
:103C5C00BFF35F8F1F6081F310882800310000F0E4
:103C6C0033F80028EDD12268EFF3108172B6136897
:103C7C00002BFCD0BFF35F8F23797F2BE7D9434612
:103C8C0002E0D0231B061B6823712368BFF35F8FF0
:103C9C0000221A6081F310880120D3E70268EFF349
:103CAC00108172B61368002BFCD0BFF35F8FFF231B
:103CBC0003710368BFF35F8F00221A6081F31088D1
:103CCC0040BF70477047C04601B40248844601BCEF
:103CDC00604700BF650E00101000000000000000DF
:103CEC0000000000000000000000000000000000C8
:103CFC00E8010020000000000000000000000000AF
:103D0C00503300004C330000543300005233000099
:103D1C004D5300004D430000533400004334000069
:083D2C0000000000000000008F
:04000005100001E9FD
:00000001FF
